{
  "_format": "hh-sol-artifact-1",
  "contractName": "Portfolio",
  "sourceName": "contracts/Portfolio.sol",
  "abi": [
    {
      "inputs": [],
      "stateMutability": "nonpayable",
      "type": "constructor"
    },
    {
      "inputs": [
        {
          "internalType": "string",
          "name": "title",
          "type": "string"
        },
        {
          "internalType": "string",
          "name": "project_desc",
          "type": "string"
        },
        {
          "internalType": "string",
          "name": "lang",
          "type": "string"
        },
        {
          "internalType": "string",
          "name": "contrib",
          "type": "string"
        },
        {
          "internalType": "string",
          "name": "source",
          "type": "string"
        },
        {
          "internalType": "string",
          "name": "demo",
          "type": "string"
        }
      ],
      "name": "addProject",
      "outputs": [],
      "stateMutability": "nonpayable",
      "type": "function"
    },
    {
      "inputs": [
        {
          "internalType": "uint256",
          "name": "",
          "type": "uint256"
        }
      ],
      "name": "educationsList",
      "outputs": [
        {
          "internalType": "string",
          "name": "title",
          "type": "string"
        },
        {
          "internalType": "string",
          "name": "date",
          "type": "string"
        },
        {
          "internalType": "string",
          "name": "faculty",
          "type": "string"
        }
      ],
      "stateMutability": "view",
      "type": "function"
    },
    {
      "inputs": [
        {
          "internalType": "uint256",
          "name": "",
          "type": "uint256"
        }
      ],
      "name": "experiencesList",
      "outputs": [
        {
          "internalType": "string",
          "name": "title",
          "type": "string"
        },
        {
          "internalType": "string",
          "name": "company",
          "type": "string"
        },
        {
          "internalType": "string",
          "name": "date",
          "type": "string"
        },
        {
          "internalType": "string",
          "name": "desc",
          "type": "string"
        }
      ],
      "stateMutability": "view",
      "type": "function"
    },
    {
      "inputs": [],
      "name": "getEducation",
      "outputs": [
        {
          "components": [
            {
              "internalType": "string",
              "name": "title",
              "type": "string"
            },
            {
              "internalType": "string",
              "name": "project_desc",
              "type": "string"
            },
            {
              "internalType": "string",
              "name": "lang",
              "type": "string"
            },
            {
              "internalType": "string",
              "name": "contrib",
              "type": "string"
            },
            {
              "internalType": "string",
              "name": "source",
              "type": "string"
            },
            {
              "internalType": "string",
              "name": "demo",
              "type": "string"
            }
          ],
          "internalType": "struct Portfolio.Project[]",
          "name": "",
          "type": "tuple[]"
        }
      ],
      "stateMutability": "view",
      "type": "function"
    },
    {
      "inputs": [],
      "name": "getExperience",
      "outputs": [
        {
          "components": [
            {
              "internalType": "string",
              "name": "title",
              "type": "string"
            },
            {
              "internalType": "string",
              "name": "company",
              "type": "string"
            },
            {
              "internalType": "string",
              "name": "date",
              "type": "string"
            },
            {
              "internalType": "string",
              "name": "desc",
              "type": "string"
            }
          ],
          "internalType": "struct Portfolio.Experience[]",
          "name": "",
          "type": "tuple[]"
        }
      ],
      "stateMutability": "view",
      "type": "function"
    },
    {
      "inputs": [],
      "name": "getProjects",
      "outputs": [
        {
          "components": [
            {
              "internalType": "string",
              "name": "title",
              "type": "string"
            },
            {
              "internalType": "string",
              "name": "project_desc",
              "type": "string"
            },
            {
              "internalType": "string",
              "name": "lang",
              "type": "string"
            },
            {
              "internalType": "string",
              "name": "contrib",
              "type": "string"
            },
            {
              "internalType": "string",
              "name": "source",
              "type": "string"
            },
            {
              "internalType": "string",
              "name": "demo",
              "type": "string"
            }
          ],
          "internalType": "struct Portfolio.Project[]",
          "name": "",
          "type": "tuple[]"
        }
      ],
      "stateMutability": "view",
      "type": "function"
    },
    {
      "inputs": [],
      "name": "getSkill",
      "outputs": [
        {
          "components": [
            {
              "internalType": "string",
              "name": "title",
              "type": "string"
            },
            {
              "internalType": "string",
              "name": "level",
              "type": "string"
            },
            {
              "internalType": "string",
              "name": "qual",
              "type": "string"
            }
          ],
          "internalType": "struct Portfolio.Skill[]",
          "name": "",
          "type": "tuple[]"
        }
      ],
      "stateMutability": "view",
      "type": "function"
    },
    {
      "inputs": [],
      "name": "imageLink",
      "outputs": [
        {
          "internalType": "string",
          "name": "",
          "type": "string"
        }
      ],
      "stateMutability": "view",
      "type": "function"
    },
    {
      "inputs": [],
      "name": "manager",
      "outputs": [
        {
          "internalType": "address",
          "name": "",
          "type": "address"
        }
      ],
      "stateMutability": "view",
      "type": "function"
    },
    {
      "inputs": [
        {
          "internalType": "uint256",
          "name": "",
          "type": "uint256"
        }
      ],
      "name": "projectsList",
      "outputs": [
        {
          "internalType": "string",
          "name": "title",
          "type": "string"
        },
        {
          "internalType": "string",
          "name": "project_desc",
          "type": "string"
        },
        {
          "internalType": "string",
          "name": "lang",
          "type": "string"
        },
        {
          "internalType": "string",
          "name": "contrib",
          "type": "string"
        },
        {
          "internalType": "string",
          "name": "source",
          "type": "string"
        },
        {
          "internalType": "string",
          "name": "demo",
          "type": "string"
        }
      ],
      "stateMutability": "view",
      "type": "function"
    },
    {
      "inputs": [
        {
          "internalType": "uint256",
          "name": "",
          "type": "uint256"
        }
      ],
      "name": "skillsList",
      "outputs": [
        {
          "internalType": "string",
          "name": "title",
          "type": "string"
        },
        {
          "internalType": "string",
          "name": "level",
          "type": "string"
        },
        {
          "internalType": "string",
          "name": "qual",
          "type": "string"
        }
      ],
      "stateMutability": "view",
      "type": "function"
    }
  ],
  "bytecode": "0x60806040526040518060600160405280602e815260200162002aed602e9139600690816200002e9190620002fe565b503480156200003c57600080fd5b5033600560006101000a81548173ffffffffffffffffffffffffffffffffffffffff021916908373ffffffffffffffffffffffffffffffffffffffff160217905550620003e5565b600081519050919050565b7f4e487b7100000000000000000000000000000000000000000000000000000000600052604160045260246000fd5b7f4e487b7100000000000000000000000000000000000000000000000000000000600052602260045260246000fd5b600060028204905060018216806200010657607f821691505b6020821081036200011c576200011b620000be565b5b50919050565b60008190508160005260206000209050919050565b60006020601f8301049050919050565b600082821b905092915050565b600060088302620001867fffffffffffffffffffffffffffffffffffffffffffffffffffffffffffffffff8262000147565b62000192868362000147565b95508019841693508086168417925050509392505050565b6000819050919050565b6000819050919050565b6000620001df620001d9620001d384620001aa565b620001b4565b620001aa565b9050919050565b6000819050919050565b620001fb83620001be565b620002136200020a82620001e6565b84845462000154565b825550505050565b600090565b6200022a6200021b565b62000237818484620001f0565b505050565b5b818110156200025f576200025360008262000220565b6001810190506200023d565b5050565b601f821115620002ae57620002788162000122565b620002838462000137565b8101602085101562000293578190505b620002ab620002a28562000137565b8301826200023c565b50505b505050565b600082821c905092915050565b6000620002d360001984600802620002b3565b1980831691505092915050565b6000620002ee8383620002c0565b9150826002028217905092915050565b620003098262000084565b67ffffffffffffffff8111156200032557620003246200008f565b5b620003318254620000ed565b6200033e82828562000263565b600060209050601f83116001811462000376576000841562000361578287015190505b6200036d8582620002e0565b865550620003dd565b601f198416620003868662000122565b60005b82811015620003b05784890151825560018201915060208501945060208101905062000389565b86831015620003d05784890151620003cc601f891682620002c0565b8355505b6001600288020188555050505b505050505050565b6126f880620003f56000396000f3fe608060405234801561001057600080fd5b50600436106100a95760003560e01c8063caf7b75911610071578063caf7b7591461016f578063cdb986cc1461018d578063dcc60128146101ab578063dcde3ce9146101c9578063f2f17833146101fb578063fc01008b14610217576100a9565b8063189e659e146100ae5780631c41e2db146100cc57806338a63d7a146100ea578063481c6a751461011f5780638c9ddec11461013d575b600080fd5b6100b661024a565b6040516100c39190611b7e565b60405180910390f35b6100d461045f565b6040516100e19190611d0e565b60405180910390f35b61010460048036038101906100ff9190611d7a565b61082a565b60405161011696959493929190611df1565b60405180910390f35b610127610ba6565b6040516101349190611ebd565b60405180910390f35b61015760048036038101906101529190611d7a565b610bcc565b60405161016693929190611ed8565b60405180910390f35b610177610d9e565b6040516101849190611f24565b60405180910390f35b610195610e2c565b6040516101a29190612080565b60405180910390f35b6101b36110d3565b6040516101c09190611d0e565b60405180910390f35b6101e360048036038101906101de9190611d7a565b61149e565b6040516101f293929190611ed8565b60405180910390f35b610215600480360381019061021091906121d7565b611670565b005b610231600480360381019061022c9190611d7a565b61176e565b604051610241949392919061230c565b60405180910390f35b60606000805480602002602001604051908101604052809291908181526020016000905b8282101561045657838290600052602060002090600302016040518060600160405290816000820180546102a19061239c565b80601f01602080910402602001604051908101604052809291908181526020018280546102cd9061239c565b801561031a5780601f106102ef5761010080835404028352916020019161031a565b820191906000526020600020905b8154815290600101906020018083116102fd57829003601f168201915b505050505081526020016001820180546103339061239c565b80601f016020809104026020016040519081016040528092919081815260200182805461035f9061239c565b80156103ac5780601f10610381576101008083540402835291602001916103ac565b820191906000526020600020905b81548152906001019060200180831161038f57829003601f168201915b505050505081526020016002820180546103c59061239c565b80601f01602080910402602001604051908101604052809291908181526020018280546103f19061239c565b801561043e5780601f106104135761010080835404028352916020019161043e565b820191906000526020600020905b81548152906001019060200180831161042157829003601f168201915b5050505050815250508152602001906001019061026e565b50505050905090565b60606007805480602002602001604051908101604052809291908181526020016000905b8282101561082157838290600052602060002090600602016040518060c00160405290816000820180546104b69061239c565b80601f01602080910402602001604051908101604052809291908181526020018280546104e29061239c565b801561052f5780601f106105045761010080835404028352916020019161052f565b820191906000526020600020905b81548152906001019060200180831161051257829003601f168201915b505050505081526020016001820180546105489061239c565b80601f01602080910402602001604051908101604052809291908181526020018280546105749061239c565b80156105c15780601f10610596576101008083540402835291602001916105c1565b820191906000526020600020905b8154815290600101906020018083116105a457829003601f168201915b505050505081526020016002820180546105da9061239c565b80601f01602080910402602001604051908101604052809291908181526020018280546106069061239c565b80156106535780601f1061062857610100808354040283529160200191610653565b820191906000526020600020905b81548152906001019060200180831161063657829003601f168201915b5050505050815260200160038201805461066c9061239c565b80601f01602080910402602001604051908101604052809291908181526020018280546106989061239c565b80156106e55780601f106106ba576101008083540402835291602001916106e5565b820191906000526020600020905b8154815290600101906020018083116106c857829003601f168201915b505050505081526020016004820180546106fe9061239c565b80601f016020809104026020016040519081016040528092919081815260200182805461072a9061239c565b80156107775780601f1061074c57610100808354040283529160200191610777565b820191906000526020600020905b81548152906001019060200180831161075a57829003601f168201915b505050505081526020016005820180546107909061239c565b80601f01602080910402602001604051908101604052809291908181526020018280546107bc9061239c565b80156108095780601f106107de57610100808354040283529160200191610809565b820191906000526020600020905b8154815290600101906020018083116107ec57829003601f168201915b50505050508152505081526020019060010190610483565b50505050905090565b6007818154811061083a57600080fd5b906000526020600020906006020160009150905080600001805461085d9061239c565b80601f01602080910402602001604051908101604052809291908181526020018280546108899061239c565b80156108d65780601f106108ab576101008083540402835291602001916108d6565b820191906000526020600020905b8154815290600101906020018083116108b957829003601f168201915b5050505050908060010180546108eb9061239c565b80601f01602080910402602001604051908101604052809291908181526020018280546109179061239c565b80156109645780601f1061093957610100808354040283529160200191610964565b820191906000526020600020905b81548152906001019060200180831161094757829003601f168201915b5050505050908060020180546109799061239c565b80601f01602080910402602001604051908101604052809291908181526020018280546109a59061239c565b80156109f25780601f106109c7576101008083540402835291602001916109f2565b820191906000526020600020905b8154815290600101906020018083116109d557829003601f168201915b505050505090806003018054610a079061239c565b80601f0160208091040260200160405190810160405280929190818152602001828054610a339061239c565b8015610a805780601f10610a5557610100808354040283529160200191610a80565b820191906000526020600020905b815481529060010190602001808311610a6357829003601f168201915b505050505090806004018054610a959061239c565b80601f0160208091040260200160405190810160405280929190818152602001828054610ac19061239c565b8015610b0e5780601f10610ae357610100808354040283529160200191610b0e565b820191906000526020600020905b815481529060010190602001808311610af157829003601f168201915b505050505090806005018054610b239061239c565b80601f0160208091040260200160405190810160405280929190818152602001828054610b4f9061239c565b8015610b9c5780601f10610b7157610100808354040283529160200191610b9c565b820191906000526020600020905b815481529060010190602001808311610b7f57829003601f168201915b5050505050905086565b600560009054906101000a900473ffffffffffffffffffffffffffffffffffffffff1681565b60088181548110610bdc57600080fd5b9060005260206000209060030201600091509050806000018054610bff9061239c565b80601f0160208091040260200160405190810160405280929190818152602001828054610c2b9061239c565b8015610c785780601f10610c4d57610100808354040283529160200191610c78565b820191906000526020600020905b815481529060010190602001808311610c5b57829003601f168201915b505050505090806001018054610c8d9061239c565b80601f0160208091040260200160405190810160405280929190818152602001828054610cb99061239c565b8015610d065780601f10610cdb57610100808354040283529160200191610d06565b820191906000526020600020905b815481529060010190602001808311610ce957829003601f168201915b505050505090806002018054610d1b9061239c565b80601f0160208091040260200160405190810160405280929190818152602001828054610d479061239c565b8015610d945780601f10610d6957610100808354040283529160200191610d94565b820191906000526020600020905b815481529060010190602001808311610d7757829003601f168201915b5050505050905083565b60068054610dab9061239c565b80601f0160208091040260200160405190810160405280929190818152602001828054610dd79061239c565b8015610e245780601f10610df957610100808354040283529160200191610e24565b820191906000526020600020905b815481529060010190602001808311610e0757829003601f168201915b505050505081565b60606009805480602002602001604051908101604052809291908181526020016000905b828210156110ca5783829060005260206000209060040201604051806080016040529081600082018054610e839061239c565b80601f0160208091040260200160405190810160405280929190818152602001828054610eaf9061239c565b8015610efc5780601f10610ed157610100808354040283529160200191610efc565b820191906000526020600020905b815481529060010190602001808311610edf57829003601f168201915b50505050508152602001600182018054610f159061239c565b80601f0160208091040260200160405190810160405280929190818152602001828054610f419061239c565b8015610f8e5780601f10610f6357610100808354040283529160200191610f8e565b820191906000526020600020905b815481529060010190602001808311610f7157829003601f168201915b50505050508152602001600282018054610fa79061239c565b80601f0160208091040260200160405190810160405280929190818152602001828054610fd39061239c565b80156110205780601f10610ff557610100808354040283529160200191611020565b820191906000526020600020905b81548152906001019060200180831161100357829003601f168201915b505050505081526020016003820180546110399061239c565b80601f01602080910402602001604051908101604052809291908181526020018280546110659061239c565b80156110b25780601f10611087576101008083540402835291602001916110b2565b820191906000526020600020905b81548152906001019060200180831161109557829003601f168201915b50505050508152505081526020019060010190610e50565b50505050905090565b60606007805480602002602001604051908101604052809291908181526020016000905b8282101561149557838290600052602060002090600602016040518060c001604052908160008201805461112a9061239c565b80601f01602080910402602001604051908101604052809291908181526020018280546111569061239c565b80156111a35780601f10611178576101008083540402835291602001916111a3565b820191906000526020600020905b81548152906001019060200180831161118657829003601f168201915b505050505081526020016001820180546111bc9061239c565b80601f01602080910402602001604051908101604052809291908181526020018280546111e89061239c565b80156112355780601f1061120a57610100808354040283529160200191611235565b820191906000526020600020905b81548152906001019060200180831161121857829003601f168201915b5050505050815260200160028201805461124e9061239c565b80601f016020809104026020016040519081016040528092919081815260200182805461127a9061239c565b80156112c75780601f1061129c576101008083540402835291602001916112c7565b820191906000526020600020905b8154815290600101906020018083116112aa57829003601f168201915b505050505081526020016003820180546112e09061239c565b80601f016020809104026020016040519081016040528092919081815260200182805461130c9061239c565b80156113595780601f1061132e57610100808354040283529160200191611359565b820191906000526020600020905b81548152906001019060200180831161133c57829003601f168201915b505050505081526020016004820180546113729061239c565b80601f016020809104026020016040519081016040528092919081815260200182805461139e9061239c565b80156113eb5780601f106113c0576101008083540402835291602001916113eb565b820191906000526020600020905b8154815290600101906020018083116113ce57829003601f168201915b505050505081526020016005820180546114049061239c565b80601f01602080910402602001604051908101604052809291908181526020018280546114309061239c565b801561147d5780601f106114525761010080835404028352916020019161147d565b820191906000526020600020905b81548152906001019060200180831161146057829003601f168201915b505050505081525050815260200190600101906110f7565b50505050905090565b600081815481106114ae57600080fd5b90600052602060002090600302016000915090508060000180546114d19061239c565b80601f01602080910402602001604051908101604052809291908181526020018280546114fd9061239c565b801561154a5780601f1061151f5761010080835404028352916020019161154a565b820191906000526020600020905b81548152906001019060200180831161152d57829003601f168201915b50505050509080600101805461155f9061239c565b80601f016020809104026020016040519081016040528092919081815260200182805461158b9061239c565b80156115d85780601f106115ad576101008083540402835291602001916115d8565b820191906000526020600020905b8154815290600101906020018083116115bb57829003601f168201915b5050505050908060020180546115ed9061239c565b80601f01602080910402602001604051908101604052809291908181526020018280546116199061239c565b80156116665780601f1061163b57610100808354040283529160200191611666565b820191906000526020600020905b81548152906001019060200180831161164957829003601f168201915b5050505050905083565b60076040518060c0016040528088815260200187815260200186815260200185815260200184815260200183815250908060018154018082558091505060019003906000526020600020906006020160009091909190915060008201518160000190816116dd9190612579565b5060208201518160010190816116f39190612579565b5060408201518160020190816117099190612579565b50606082015181600301908161171f9190612579565b5060808201518160040190816117359190612579565b5060a082015181600501908161174b9190612579565b505050600160008154809291906117619061267a565b9190505550505050505050565b6009818154811061177e57600080fd5b90600052602060002090600402016000915090508060000180546117a19061239c565b80601f01602080910402602001604051908101604052809291908181526020018280546117cd9061239c565b801561181a5780601f106117ef5761010080835404028352916020019161181a565b820191906000526020600020905b8154815290600101906020018083116117fd57829003601f168201915b50505050509080600101805461182f9061239c565b80601f016020809104026020016040519081016040528092919081815260200182805461185b9061239c565b80156118a85780601f1061187d576101008083540402835291602001916118a8565b820191906000526020600020905b81548152906001019060200180831161188b57829003601f168201915b5050505050908060020180546118bd9061239c565b80601f01602080910402602001604051908101604052809291908181526020018280546118e99061239c565b80156119365780601f1061190b57610100808354040283529160200191611936565b820191906000526020600020905b81548152906001019060200180831161191957829003601f168201915b50505050509080600301805461194b9061239c565b80601f01602080910402602001604051908101604052809291908181526020018280546119779061239c565b80156119c45780601f10611999576101008083540402835291602001916119c4565b820191906000526020600020905b8154815290600101906020018083116119a757829003601f168201915b5050505050905084565b600081519050919050565b600082825260208201905092915050565b6000819050602082019050919050565b600081519050919050565b600082825260208201905092915050565b60005b83811015611a34578082015181840152602081019050611a19565b60008484015250505050565b6000601f19601f8301169050919050565b6000611a5c826119fa565b611a668185611a05565b9350611a76818560208601611a16565b611a7f81611a40565b840191505092915050565b60006060830160008301518482036000860152611aa78282611a51565b91505060208301518482036020860152611ac18282611a51565b91505060408301518482036040860152611adb8282611a51565b9150508091505092915050565b6000611af48383611a8a565b905092915050565b6000602082019050919050565b6000611b14826119ce565b611b1e81856119d9565b935083602082028501611b30856119ea565b8060005b85811015611b6c5784840389528151611b4d8582611ae8565b9450611b5883611afc565b925060208a01995050600181019050611b34565b50829750879550505050505092915050565b60006020820190508181036000830152611b988184611b09565b905092915050565b600081519050919050565b600082825260208201905092915050565b6000819050602082019050919050565b600060c0830160008301518482036000860152611be98282611a51565b91505060208301518482036020860152611c038282611a51565b91505060408301518482036040860152611c1d8282611a51565b91505060608301518482036060860152611c378282611a51565b91505060808301518482036080860152611c518282611a51565b91505060a083015184820360a0860152611c6b8282611a51565b9150508091505092915050565b6000611c848383611bcc565b905092915050565b6000602082019050919050565b6000611ca482611ba0565b611cae8185611bab565b935083602082028501611cc085611bbc565b8060005b85811015611cfc5784840389528151611cdd8582611c78565b9450611ce883611c8c565b925060208a01995050600181019050611cc4565b50829750879550505050505092915050565b60006020820190508181036000830152611d288184611c99565b905092915050565b6000604051905090565b600080fd5b600080fd5b6000819050919050565b611d5781611d44565b8114611d6257600080fd5b50565b600081359050611d7481611d4e565b92915050565b600060208284031215611d9057611d8f611d3a565b5b6000611d9e84828501611d65565b91505092915050565b600082825260208201905092915050565b6000611dc3826119fa565b611dcd8185611da7565b9350611ddd818560208601611a16565b611de681611a40565b840191505092915050565b600060c0820190508181036000830152611e0b8189611db8565b90508181036020830152611e1f8188611db8565b90508181036040830152611e338187611db8565b90508181036060830152611e478186611db8565b90508181036080830152611e5b8185611db8565b905081810360a0830152611e6f8184611db8565b9050979650505050505050565b600073ffffffffffffffffffffffffffffffffffffffff82169050919050565b6000611ea782611e7c565b9050919050565b611eb781611e9c565b82525050565b6000602082019050611ed26000830184611eae565b92915050565b60006060820190508181036000830152611ef28186611db8565b90508181036020830152611f068185611db8565b90508181036040830152611f1a8184611db8565b9050949350505050565b60006020820190508181036000830152611f3e8184611db8565b905092915050565b600081519050919050565b600082825260208201905092915050565b6000819050602082019050919050565b60006080830160008301518482036000860152611f8f8282611a51565b91505060208301518482036020860152611fa98282611a51565b91505060408301518482036040860152611fc38282611a51565b91505060608301518482036060860152611fdd8282611a51565b9150508091505092915050565b6000611ff68383611f72565b905092915050565b6000602082019050919050565b600061201682611f46565b6120208185611f51565b93508360208202850161203285611f62565b8060005b8581101561206e578484038952815161204f8582611fea565b945061205a83611ffe565b925060208a01995050600181019050612036565b50829750879550505050505092915050565b6000602082019050818103600083015261209a818461200b565b905092915050565b600080fd5b600080fd5b7f4e487b7100000000000000000000000000000000000000000000000000000000600052604160045260246000fd5b6120e482611a40565b810181811067ffffffffffffffff82111715612103576121026120ac565b5b80604052505050565b6000612116611d30565b905061212282826120db565b919050565b600067ffffffffffffffff821115612142576121416120ac565b5b61214b82611a40565b9050602081019050919050565b82818337600083830152505050565b600061217a61217584612127565b61210c565b905082815260208101848484011115612196576121956120a7565b5b6121a1848285612158565b509392505050565b600082601f8301126121be576121bd6120a2565b5b81356121ce848260208601612167565b91505092915050565b60008060008060008060c087890312156121f4576121f3611d3a565b5b600087013567ffffffffffffffff81111561221257612211611d3f565b5b61221e89828a016121a9565b965050602087013567ffffffffffffffff81111561223f5761223e611d3f565b5b61224b89828a016121a9565b955050604087013567ffffffffffffffff81111561226c5761226b611d3f565b5b61227889828a016121a9565b945050606087013567ffffffffffffffff81111561229957612298611d3f565b5b6122a589828a016121a9565b935050608087013567ffffffffffffffff8111156122c6576122c5611d3f565b5b6122d289828a016121a9565b92505060a087013567ffffffffffffffff8111156122f3576122f2611d3f565b5b6122ff89828a016121a9565b9150509295509295509295565b600060808201905081810360008301526123268187611db8565b9050818103602083015261233a8186611db8565b9050818103604083015261234e8185611db8565b905081810360608301526123628184611db8565b905095945050505050565b7f4e487b7100000000000000000000000000000000000000000000000000000000600052602260045260246000fd5b600060028204905060018216806123b457607f821691505b6020821081036123c7576123c661236d565b5b50919050565b60008190508160005260206000209050919050565b60006020601f8301049050919050565b600082821b905092915050565b60006008830261242f7fffffffffffffffffffffffffffffffffffffffffffffffffffffffffffffffff826123f2565b61243986836123f2565b95508019841693508086168417925050509392505050565b6000819050919050565b600061247661247161246c84611d44565b612451565b611d44565b9050919050565b6000819050919050565b6124908361245b565b6124a461249c8261247d565b8484546123ff565b825550505050565b600090565b6124b96124ac565b6124c4818484612487565b505050565b5b818110156124e8576124dd6000826124b1565b6001810190506124ca565b5050565b601f82111561252d576124fe816123cd565b612507846123e2565b81016020851015612516578190505b61252a612522856123e2565b8301826124c9565b50505b505050565b600082821c905092915050565b600061255060001984600802612532565b1980831691505092915050565b6000612569838361253f565b9150826002028217905092915050565b612582826119fa565b67ffffffffffffffff81111561259b5761259a6120ac565b5b6125a5825461239c565b6125b08282856124ec565b600060209050601f8311600181146125e357600084156125d1578287015190505b6125db858261255d565b865550612643565b601f1984166125f1866123cd565b60005b82811015612619578489015182556001820191506020850194506020810190506125f4565b868310156126365784890151612632601f89168261253f565b8355505b6001600288020188555050505b505050505050565b7f4e487b7100000000000000000000000000000000000000000000000000000000600052601160045260246000fd5b600061268582611d44565b91507fffffffffffffffffffffffffffffffffffffffffffffffffffffffffffffffff82036126b7576126b661264b565b5b60018201905091905056fea264697066735822122074454c44877435d4ad21e2ab17edd60268802a92cd726521d3fee1e7913f7e5664736f6c63430008130033516d58487355543862377a684a676848665772743435384a72556671684c71777663455657575a71555977375248",
  "linkReferences": {},
  "deployedLinkReferences": {}
}